:100000006EEF00F00000000000EF00F000000000C4
:0A0010000000000000000000F3D71C
:0E001C00ACB202D00000FCD757C0ADFF1200FE
:0A002A00000E9EBA010E006E1200D7
:10003400AECF01F0ABA202D0AB98AB8801C000F008
:020044001200A8
:10004600566A53C0E9FF54C0EAFFEECF55F055504B
:10005600000A0DE055C057F0DEDF562A56505324ED
:10006600E96E000E5420EA6EEECF55F0F0D712007E
:100076000900F5CFE6FF0006FBE10106F9E11200F3
:100086001C0E436E000E446E570E456E000E466EF5
:10009600340E4B6E000E4C6E000E4D6E000E4E6E04
:1000A6002A0E476E000E486E000E496E000E4A6E0E
:1000B600FF0E4F6EFF0E506E000E516E000E526E0A
:1000C600AC8A900EAB6E948E949C9EAA03D0AECF53
:0600D60000F0FBD7120050
:1000DC00D3EC00F0936A760ED36EB886B06ACF0E6E
:1000EC00AF6EAC84CADF020E0B6E040E0C6EBA0E31
:1000FC000D6E0D2EFED70C2EFCD70B2EFAD7000052
:10010C00300E536E000E546E98DF060E0B6E130EEF
:10011C000C6EAD0E0D6E0D2EFED70C2EFCD70B2ECD
:10012C00FAD700000000150E536E000E546E85DFDA
:10013C0076DF005219E078DF00C042F00CD08A80E4
:10014C008A928A9411D08A908A828A940DD08A904D
:10015C008A928A8409D04250310AF1E04250320A24
:0C016C00F2E04250330AF3E0E3D7FFD783
:1001A60010EE15F02D0E006E010E016E780EF66E35
:0E01B600010EF76E000EF86E3BEC00F012002A
:10017800507265737320312C32263320666F7220DB
:0B018800746865204C6564730D0A006C
:1001930057656C636F6D6520506974696173200DD9
:0201A3000A0050
:020000040030CA
:0D000100081F1EFF0381FF0FC00FE00F401E
:00000001FF
